:1000000099C00000B7C00000B5C00000B3C0000038
:10001000B1C00000AFC00000ADC00000ABC0000028
:10002000A9C00000A7C00000A5C00000A3C0000038
:10003000A1C000009FC000009DC000009BC0000048
:1000400099C0000097C0000095C0000093C0000058
:1000500091C000008FC000008DC000008BC0000068
:1000600089C0000087C0000085C0000083C0000078
:1000700081C000007FC000007DC000007BC0000088
:1000800079C0000077C0000075C0000073C0000098
:1000900071C000006FC000006DC000006BC00000A8
:1000A00069C0000067C0000065C0000063C00000B8
:1000B00061C000005FC000005DC000005BC00000C8
:1000C00059C0000057C0000055C0000053C00000D8
:1000D00051C000004FC000004DC000004BC00000E8
:1000E00049C0000047C0000045C0000043C00000F8
:1000F00041C000003FC000003DC000003BC0000008
:1001000039C0000037C0000035C0000033C0000017
:1001100031C000002FC000002DC000002BC0000027
:1001200029C0000027C0000025C0000023C0000037
:1001300021C0000011241FBECFEFD1E8DEBFCDBF2C
:1001400000E00CBF14E0A0E0B2E0ECEDF5E100E06F
:100150000BBF02C007900D92A43BB107D9F724E072
:10016000A4EBB4E001C01D92AB3BB207E1F74ED562
:100170000C94EC0A45CF0F931F93CF93DF93EB01C1
:100180008A0120E030E0A0E019C0FE01EA0FF11D75
:100190005081592371E009F470E0532F551F552702
:1001A000551F220F331F751719F045E024273058CB
:1001B000990F01C091E09111E8CFAF5FA817D0F37C
:1001C000F80120833183DF91CF911F910F91089522
:1001D000EF92FF921F93CF93DF931F921F92CDB7A1
:1001E000DEB77C01FC0180811EEF180FAE014F5F6E
:1001F0005F4FB701812FBFDF3981812F90E0F70179
:10020000E80FF91F2081321309C02A81F701E80F96
:10021000F91F8181281721F085EE03C085EE01C00A
:1002200080E00F900F90DF91CF911F91FF90EF90A2
:1002300008950F931F93CF938C01E9D2811124C0AD
:10024000B80184E068D3C82F81111CC0F8018081F7
:10025000843051F48181813149F48281833341F4C6
:100260008381833439F407C0C4EE05C0C0EF03C0F6
:10027000C5EE01C0C5EECC2331F086E490E0A6D3F4
:100280008C2F02C001C08C2FCF911F910F91089528
:10029000CF93DF93EB0169D3882331F030D3CE01C4
:1002A000C8DF811101C088EEDF91CF9108954F9290
:1002B0005F927F928F929F92AF92BF92CF92DF9286
:1002C000EF92FF920F931F93CF93DF931F921F9292
:1002D000CDB7DEB76C01B62E7A01822EFC0190807C
:1002E0008EEF890D48EE53E0049F9001059F300D7D
:1002F00011242901F5E24F0E511CA601480F511D92
:10030000B60139DF82E010EE64C0B601892DF2D269
:10031000182F882339F0B7018B2DBADF873E09F0FB
:1003200057C060C0882D90E051D382E04AC0F701E9
:10033000E80FF11D10828F5F01C080E08B15B8F3CC
:100340005A824982B7018B2DE6D2182F29813A8132
:10035000255231093A83298389819A81869710F041
:10036000173E81F3173E31F4B7018B2D91DF873EA5
:1003700079F53AC0143E49F4B7018B2D89DF882303
:10038000F9F0883E29F1812F38C0C70121DF182FED
:1003900081110DC0F7018081853040F58181833066
:1003A00039F18F3039F18F3F91F0812F26C0B7019D
:1003B0008B2D6EDF882321F0883E51F0812F1DC0E8
:1003C000872D77247A94780E8111B7CF01C014ED70
:1003D0008A2DAA24AA94A80E882371F0111195CF12
:1003E000812F0BC0812F09C0812F07C0812F05C02D
:1003F00082ED03C083ED01C0812F0F900F90DF913C
:10040000CF911F910F91FF90EF90DF90CF90BF9011
:10041000AF909F908F907F905F904F9008950F9333
:100420000097A1F06115710599F0423098F4AB0185
:10043000FC0187E080838BE1818312821482138226
:1004400008E22BE063E2CF0132DF05C082EE03C099
:1004500082EE01C082EE0F9108950F93009791F103
:100460006115710589F1E42FF0E0EC77EF2B71F560
:100470003695279536952795542F537021F42032C1
:10048000310530F50BC0513021F42031310510F524
:1004900005C0523019F420383105F0F437E0FC0182
:1004A000308332E0318342832F77238314824423C5
:1004B00014F433E201C037E0AB0103E021E0632F25
:1004C000F6DE0BC082EE09C082EE07C082EE05C0E8
:1004D00082EE03C082EE01C082EE0F9108958F92EA
:1004E0009F92AF92BF92CF92DF92EF92FF920F93C3
:1004F0001F93CF93DF93009709F455C061157105E1
:1005000009F453C00115110509F451C0E42FF0E0BE
:10051000EC73EF2B09F04DC036952795369527954E
:10052000542F537029F42032310508F044C00CC018
:10053000513029F42031310508F03FC005C0523058
:1005400019F420383105D8F532E1FC0131834283BA
:100550002F772383EC0125961482442314F420E2A0
:1005600001C024E05B014C01C22ED12CA601B801D0
:10057000CE0169D5CC0DDD1DE114F10441F080E21E
:10058000F701DE0101900D928A95E1F7A096C81956
:10059000D909CE5FF401C08306E224E0A50164E03E
:1005A000C40185DE0DC082EE0BC082EE09C082EE72
:1005B00007C082EE05C082EE03C082EE01C082EE6B
:1005C000DF91CF911F910F91FF90EF90DF90CF902F
:1005D000BF90AF909F908F90089591C10895FF9222
:1005E0000F931F93CF93DF93CDB7DEB7A3970FB6CB
:1005F000F894DEBF0FBECDBF8B0120E030E040E8B5
:10060000BE016F5F7F4F29DFF82E811178D18A817B
:100610009B81F801918380838C819D819383828368
:10062000D801149685E0FE013A9601900D928A95C4
:10063000E1F78F2DA3960FB6F894DEBF0FBECDBFA6
:10064000DF91CF911F910F91FF900895CF92DF928C
:10065000EF92FF920F931F93CF93DF93CDB7DEB747
:10066000E2970FB6F894DEBF0FBECDBF182F7B0107
:10067000C9D0812FC4D0CE010996DBDD8983898161
:10068000882311F08981ACC0BE01675F7F4F83E290
:10069000DB011D928A95E9F720E030E040E8CE01C9
:1006A0000296DBDE89832BD18981882311F0898131
:1006B00097C0E114F10459F080E2FE013A96D701A7
:1006C00001900D928A95E1F7B0E2EB0EF11CCE019C
:1006D000099623E2FC0111922A95E9F7AADD8983A4
:1006E0008981882311F089817BC0BE01675F7F4FBC
:1006F00083E2DB011D928A95E9F720E230E040E8D1
:10070000CE010296AADE8983FAD08981882311F06E
:10071000898166C0E114F10459F080E2FE013A9645
:10072000D70101900D928A95E1F7B0E2EB0EF11C32
:10073000CE01099623E2FC0111922A95E9F779DDB1
:1007400089838981882311F089814AC01986FE0135
:10075000399683E2DF011D928A95E9F76E01BAE0CE
:10076000CB0ED11C00E410E028C0BE01645D7F4FB9
:1007700087E0FB0111928A95E9F7980140E0CE01EC
:1007800002966BDE89838981882319F0B8D089812C
:1007900027C08DA59EA5D60111969C938E938FA5FB
:1007A00098A913969C938E931297B4E0CB0ED11C0C
:1007B00089858C5F89870C5F1F4F08351105A8F26A
:1007C0009ED0898181110BC0E114F10441F088E1D0
:1007D000FE013A96D70101900D928A95E1F7898141
:1007E000E2960FB6F894DEBF0FBECDBFDF91CF917A
:1007F0001F910F91FF90EF90DF90CF90089580931D
:10080000B4040895EDD088EC8093B4040895CF9398
:10081000DF931F92CDB7DEB71982E6D0811116C0E3
:100820008FE39FE10197F1F700C00000BE016F5F09
:100830007F4F81E00FD1F7D081110AC08FE697E199
:100840000197F1F700C0000080E003C080EF01C015
:1008500080EF0F90DF91CF9108951F93CF93DF9397
:100860001F92CDB7DEB79091B404892B8983BCD099
:1008700081110BC0BE016F5F7F4F81E0EBD0182F5D
:10088000882319F0D0D0812F00C00F90DF91CF9135
:100890001F910895EF92FF921F93CF93DF931F92C2
:1008A000CDB7DEB78983162F7A0180E0D6DF8111BC
:1008B00015C0BE016F5F7F4F81E0CCD0811110C0A9
:1008C000111103C0B0D080E00EC0B701812FC2D09B
:1008D000182FA9D0112331F080EF05C080EF03C09D
:1008E00080EF01C080E00F90DF91CF911F91FF90CA
:1008F000EF900895AB01682F83E0CCCF089540E0DE
:1009000050E060E081E0C6CF089540E050E060E054
:1009100080E0C0CF08951F93CF93DF93182FEB0192
:1009200081E09BDF882319F0883FB1F01AC0CE0127
:10093000BAD0811113C08881843010F0181718F4D0
:1009400072D084EE0EC0BE016F5F7F4F8150C8D061
:10095000882331F080EF05C087EE03C080EF01C02F
:1009600080E0DF91CF911F910895CF93DF931F9285
:10097000CDB7DEB78FEF898337D0BE016F5F7F4F72
:1009800081E068D081E069DF811101C04CD0811124
:1009900002C0BBDF01C080EF0F90DF91CF910895BF
:1009A000CF93DF931F92CDB7DEB70AC09EE0998345
:1009B00003C099819150998399819111FACF815007
:1009C0008111F4CF0F90DF91CF910895CF93C82F6D
:1009D00003C088E6E5DFC150C111FBCFCF91089578
:1009E00082E08093B800089584EA8093BC002AEFE7
:1009F0003FEF320F222389F0ECEBF0E09081808111
:100A0000232F80788923A1F38091B900887F8830D3
:100A100031F0803131F480E0089581EF089580E075
:100A2000089580EF089584E98093BC008AEF9FEFDA
:100A3000980F882359F02091BC00892F24FDF7CF0F
:100A40008091B900887F21F480EF089581EF0895A7
:100A500080E00895FB0140E01EC0BF016F5F7F4F43
:100A600090819093BB0094E89093BC0098EC2FEF9A
:100A7000290F9923A1F03091BC00922F3323BCF7AA
:100A80009091B900987F983121F0983211F090340C
:100A900041F44F5FFB01481700F380E0089581EFB8
:100AA000089588EF0895FC0194EC9093BC0098ECB5
:100AB0002FEF290F992391F03091BC00922F33230F
:100AC000BCF79091B900987F903519F0ACDF80EFBA
:100AD00008958091BB00808380E0089581EF0895A0
:100AE000FB0170E01AC094EC9093BC0098EC2FEFDF
:100AF000290F9923A9F13091BC00922F3323BCF721
:100B00009091B900987F903519F08DDF80EF0895AE
:100B10009091BB0090837F5F3196472F50E0282F44
:100B200030E02150310942175307ECF284E88093FA
:100B3000BC0088EC2FEF280F8823A1F09091BC0017
:100B4000822F9923BCF78091B900887F883519F0EE
:100B50006ADF80EF08958091BB00808364CF0895A1
:100B600081EF089581EF0895CF93DF939C0140E0DA
:100B700050E060E271EA87E090E027D2215031092D
:100B8000CDECD0E03883ACECB0E02C9369EC70E0B5
:100B900098E1FB0190834AEC50E0FA018081866085
:100BA000808338832C93FB019083DF91CF9108954C
:100BB0009091C80095FFFCCF8093CE000895CF930D
:100BC000DF93EC0102C0F4DF219688818111FBCF15
:100BD000EFDFDF91CF9108959091C80095FFFCCF92
:100BE0008093CE0080E090E00895F89480E096E94C
:100BF000BBDFE9ECF0E080818068808380E092E0F8
:100C00009093B8048093B70478940895EF92FF927C
:100C10000F931F93CF93DF93CDB7DEB7CF59D1405A
:100C20000FB6F894DEBF0FBECDBFDFDF8BE1C0DFB4
:100C30008EE092E0C4DF8BE1BBDF82E192E0BFDFB8
:100C4000E1DDCE010196F5DA882361F01F928F93E2
:100C50008CE192E09F938F93FFD10F900F900F90B4
:100C60000F9007C08BE492E09F938F93F5D10F9084
:100C70000F9083E08CA31DA21EA21FA2BE016C5D7B
:100C80007F4F84E037DE882361F01F928F9382E7E5
:100C900092E09F938F93E0D10F900F900F900F9061
:100CA00007C085EB92E09F938F93D6D10F900F9062
:100CB000BE016F5F7F4F83E22EDE882371F01F92AB
:100CC0008F9383EE92E09F938F93C6D10F900F90F6
:100CD0000F900F9081E090E06AC18CE293E09F93C7
:100CE0008F93BAD1BE016E5C7F4FCE01889677DCC0
:100CF0008BAF8BAD0F900F90811122C081E693E0F6
:100D00009F938F93A9D10F900F9000E010E014C033
:100D1000E2E3F0E0EC0FFD1FE00FF11F80811F9276
:100D20008F9383E893E09F938F9396D10F5F1F4F2C
:100D30000F900F900F900F90093011054CF30CC0DD
:100D40008BAD1F928F9389E893E09F938F9384D10B
:100D50000F900F900F900F908EE593E09F938F93DD
:100D60007BD141E0BE0160577F4FCE01CC9657DB6F
:100D7000CD54DF4F8883C35BD040CD54DF4F888193
:100D8000C35BD0400F900F90811123C087EB93E09D
:100D90009F938F9361D10F900F9000E010E014C0EB
:100DA000E1E9F0E0EC0FFD1FE00FF11F80811F92E1
:100DB0008F9383E893E09F938F934ED10F5F1F4FE4
:100DC0000F900F900F900F90023211054CF305DC3D
:100DD00010C0CD54DF4F8881C35BD0401F928F93EA
:100DE0008EED93E09F938F9337D10F900F900F90DC
:100DF0000F900EE513E01F930F932ED182E0CC5499
:100E0000DF4F8883C45BD040CB54DF4F8883C55B02
:100E1000D04083E0CA54DF4F8883C65BD04087E070
:100E2000C954DF4F8883C75BD040AE0148545F4F41
:100E3000BE016C547F4F84E09ED9C854DF4F988127
:100E4000C85BD040C754DF4F8881C95BD0401F9238
:100E50009F931F928F9381E094E09F938F93FCD098
:100E60001F930F93F9D0BE0166547F4F88ECEEDBE1
:100E7000182F81E194E09F938F93EED00FB6F894F2
:100E8000DEBF0FBECDBF1123D1F01FC0EAEBF0E0F3
:100E9000EC0FFD1FE00FF11F80811F928F931F93B6
:100EA0000F9380E294E09F938F93D6D00F5F1F4FF4
:100EB0000F900F900F900F900F900F9002C000E0D6
:100EC00010E00835110514F30BC01F921F9382E345
:100ED00094E09F938F93C0D00F900F900F900F903E
:100EE0007E0198EAE91A9EEFF90A80E2F701119271
:100EF0008A95E9F78E010F561F4F20E030E042E05F
:100F0000BE016C5A7E4FCE018E5E9E4FE8DA811193
:100F100008C080E594E09F938F939ED00F900F9030
:100F20000BC01F928F9386E694E09F938F9394D08B
:100F30000F900F900F900F9020E030E042E0BE0144
:100F400063587E4FCE0188589E4F87DA8823D1F0B0
:100F500021C0EDE7F1E0EC0FFD1FE00FF11F8081F4
:100F60001F928F931F930F9384E894E09F938F9326
:100F700073D00F5F1F4F0F900F900F900F900F9037
:100F80000F9002C000E010E00332110514F380E07E
:100F900090E00DC01F928F9385E994E09F938F930B
:100FA0005BD00F900F900F900F9080E090E0C156B3
:100FB000DE4F0FB6F894DEBF0FBECDBFDF91CF91ED
:100FC0001F910F91FF90EF900895052E97FB16F457
:100FD00000940FD057FD05D014D007FC02D046F482
:100FE00008C050954095309521953F4F4F4F5F4F2A
:100FF000089590958095709561957F4F8F4F9F4F85
:101000000895A1E21A2EAA1BBB1BFD010DC0AA1F49
:10101000BB1FEE1FFF1FA217B307E407F50720F061
:10102000A21BB30BE40BF50B661F771F881F991FDC
:101030001A9469F760957095809590959B01AC0125
:10104000BD01CF010895FB01DC0102C001900D92AA
:1010500041505040D8F70895CF93DF93CDB7DEB716
:10106000AE014A5F5F4FFA0161917191AF018091CA
:10107000B7049091B80403D0DF91CF9108952F92D7
:101080003F924F925F926F927F928F929F92AF9218
:10109000BF92CF92DF92EF92FF920F931F93CF9365
:1010A000DF93CDB7DEB72B970FB6F894DEBF0FBE38
:1010B000CDBF6C017B018A01FC01178216828381FE
:1010C00081FFBFC1CE0101963C01F6019381F7017A
:1010D00093FD859193FF81917F01882309F4ADC130
:1010E000853239F493FD859193FF81917F0185329B
:1010F00021F4B60190E0D6D1E8CF912C212C312CEF
:10110000FFE1F315D8F08B3279F038F4803279F0C2
:101110008332A1F4232D20611DC08D3261F0803314
:1011200069F4232D216016C0832D8260382EE32DB3
:10113000E4603E2E2AC0F32DF8601DC037FC2DC0A0
:1011400020ED280F2A3040F08E32B9F436FC75C1FC
:10115000232D2064322E19C036FE06C08AE0989EE8
:10116000200D1124922E11C0EAE02E9E200D112494
:10117000222EF32DF0623F2E08C08C3621F4832DF1
:101180008068382E02C0883641F4F70193FD8591BE
:1011900093FF81917F018111B3CF982F9F7D95544B
:1011A000933028F40C5F1F4F9FE399830DC0833663
:1011B00031F0833771F0833509F055C020C0F80154
:1011C000808189830E5F1F4F88248394912C530163
:1011D00012C02801F2E04F0E511CF801A080B1802E
:1011E00036FE03C0692D70E002C06FEF7FEFC501CE
:1011F0004ED14C018201F32DFF773F2E15C02801FF
:1012000022E0420E511CF801A080B18036FE03C0DE
:10121000692D70E002C06FEF7FEFC5012DD14C0149
:10122000F32DF0683F2E820133FC19C0822D90E02F
:1012300088169906A0F4B60180E290E033D12A9492
:10124000F5CFF50137FC859137FE81915F01B6013D
:1012500090E028D121102A9421E0821A910881146B
:10126000910479F7E1C0843611F0893639F5F80137
:1012700037FE07C060817181828193810C5F1F4FAF
:1012800008C060817181072E000C880B990B0E5FDE
:101290001F4FF32DFF763F2E97FF09C09095809545
:1012A000709561957F4F8F4F9F4FF0683F2E2AE0DA
:1012B00030E0A30133D1882E861844C0853731F43D
:1012C000232D2F7EB22E2AE030E025C0932D997F6A
:1012D000B92E8F36C1F018F4883579F0AEC080375A
:1012E00019F0883721F0A9C0E92FE061BE2EB4FEC5
:1012F0000DC0FB2DF460BF2E09C034FE0AC0292F9B
:101300002660B22E06C028E030E005C020E130E0C3
:1013100002C020E132E0F801B7FE07C060817181B0
:10132000828193810C5F1F4F06C06081718180E0D4
:1013300090E00E5F1F4FA301F1D0882E8618FB2D81
:10134000FF773F2E36FE0DC0232D2E7FA22E89144F
:1013500058F434FE0BC032FC09C0832D8E7EA82EBB
:1013600005C0B82CA32C03C0B82C01C0B92CA4FE16
:101370000FC0FE01E80DF11D8081803321F49A2D0C
:10138000997EA92E09C0A2FE06C0B394B39404C0EE
:101390008A2D867809F0B394A3FC10C0A0FE06C085
:1013A000B21480F4280C922C9B180DC0B21458F47F
:1013B000B60180E290E076D0B394F8CFB21418F47E
:1013C0002B1802C0982C212CA4FE0FC0B60180E37C
:1013D00090E068D0A2FE16C0A1FC03C088E790E0B0
:1013E00002C088E590E0B6010CC08A2D867851F0E5
:1013F000A1FE02C08BE201C080E2A7FC8DE2B60133
:1014000090E050D0891430F4B60180E390E04AD0E7
:101410009A94F8CF8A94F301E80DF11D8081B6010A
:1014200090E040D08110F6CF222009F44ECEB601D4
:1014300080E290E037D02A94F7CFF6018681978139
:1014400002C08FEF9FEF2B960FB6F894DEBF0FBE52
:10145000CDBFDF91CF911F910F91FF90EF90DF9063
:10146000CF90BF90AF909F908F907F906F905F9044
:101470004F903F902F900895FC010590615070406F
:101480000110D8F7809590958E0F9F1F0895FC014D
:101490006150704001900110D8F7809590958E0FA3
:1014A0009F1F08950F931F93CF93DF93FB01238119
:1014B00021FD03C08FEF9FEF2CC022FF16C0468195
:1014C0005781248135814217530744F4A081B181AB
:1014D0009D012F5F3F4F318320838C93268137817D
:1014E0002F5F3F4F3783268314C08B01EC01FB0134
:1014F0000084F185E02D1995892BE1F6D801169627
:101500008D919C911797019617969C938E931697A1
:10151000CE01DF91CF911F910F910895FA01AA2773
:10152000283051F1203181F1E8946F936E7F6E5F26
:101530007F4F8F4F9F4FAF4FB1E03ED0B4E03CD0D4
:10154000670F781F891F9A1FA11D680F791F8A1FB7
:10155000911DA11D6A0F711D811D911DA11D20D01E
:1015600009F468943F912AE0269F11243019305DD8
:101570003193DEF6CF010895462F4770405D4193C9
:10158000B3E00FD0C9F7F6CF462F4F70405D4A3316
:1015900018F0495D31FD4052419302D0A9F7EACFDE
:1015A000B4E0A6959795879577956795BA95C9F70D
:1015B00000976105710508959B01AC010A2E069400
:1015C0005795479537952795BA95C9F7620F731FB9
:0C15D000841F951FA01D0895F894FFCF04
:1015DC000000000300000000EC05000000005B327E
:1015EC004A005B303B33323B34306D004572726FD6
:1015FC00723A205348413230342077616B657570F4
:10160C00206661696C6564212052657475726E2068
:10161C00636F64653A2025640A0D005348413230EB
:10162C00342064657669636520776F6B656E207511
:10163C0070207375636365737366756C6C79210ABE
:10164C000D004572726F723A204661696C656420B8
:10165C00746F2073656E6420636F6D6D616E6420B2
:10166C00746F205348413230342064657669636569
:10167C00212052657475726E20636F64653A202068
:10168C0025640A0D00436F6D6D616E642073656E89
:10169C0074207375636365737366756C6C792074F1
:1016AC006F2053484132303420646576696365217C
:1016BC000A0D004572726F723A204661696C65645E
:1016CC0020746F207265636569766520726573702E
:1016DC006F6E73652066726F6D20534841323034E3
:1016EC0020646576696365212052657475726E207D
:1016FC00636F64653A202025640A0D00526573708F
:10170C006F6E7365207265636569766564207375A9
:10171C00636365737366756C6C792066726F6D208C
:10172C0053484132303420646576696365210A0D73
:10173C000053657269616C206E756D626572207202
:10174C00656164207375636365737366756C6C791E
:10175C003A20002530325820004572726F72207288
:10176C00656164696E672073657269616C206E7562
:10177C006D626572212052657475726E20636F64A0
:10178C00653A202025640052616E646F6D206E7581
:10179C006D6265722067656E657261746564207335
:1017AC0075636365737366756C6C793A200045726A
:1017BC00726F722067656E65726174696E672072F4
:1017CC00616E646F6D206E756D626572212025648B
:1017DC00004352433A203078253032582530325865
:1017EC0000436F6E666967207A6F6E653A0A0D006A
:1017FC00427974652025643A203078253032580AB5
:10180C000D004572726F722072656164696E67209B
:10181C00636F6E666967207A6F6E652120256400A0
:10182C00537563636573732077726974696E67208F
:10183C006461746121004572726F722077726974F1
:10184C00696E672064617461207A6F6E6521202552
:10185C00640A0D00427974652025643A203078259D
:10186C003032580A004572726F7220726561646979
:10187C006E672064617461207A6F6E652120256427
:04188C000A0D000041
:00000001FF
